{
  "_format": "hh-sol-artifact-1",
  "contractName": "Finance",
  "sourceName": "contracts/Finance.sol",
  "abi": [
    {
      "inputs": [],
      "stateMutability": "nonpayable",
      "type": "constructor"
    },
    {
      "inputs": [
        {
          "internalType": "address",
          "name": "owner",
          "type": "address"
        }
      ],
      "name": "OwnableInvalidOwner",
      "type": "error"
    },
    {
      "inputs": [
        {
          "internalType": "address",
          "name": "account",
          "type": "address"
        }
      ],
      "name": "OwnableUnauthorizedAccount",
      "type": "error"
    },
    {
      "inputs": [],
      "name": "ReentrancyGuardReentrantCall",
      "type": "error"
    },
    {
      "anonymous": false,
      "inputs": [
        {
          "indexed": true,
          "internalType": "address",
          "name": "user",
          "type": "address"
        },
        {
          "indexed": false,
          "internalType": "string",
          "name": "category",
          "type": "string"
        },
        {
          "indexed": false,
          "internalType": "uint256",
          "name": "amount",
          "type": "uint256"
        },
        {
          "indexed": false,
          "internalType": "uint256",
          "name": "month",
          "type": "uint256"
        },
        {
          "indexed": false,
          "internalType": "uint256",
          "name": "year",
          "type": "uint256"
        }
      ],
      "name": "BudgetSet",
      "type": "event"
    },
    {
      "anonymous": false,
      "inputs": [
        {
          "indexed": true,
          "internalType": "address",
          "name": "user",
          "type": "address"
        },
        {
          "indexed": false,
          "internalType": "uint256",
          "name": "amount",
          "type": "uint256"
        },
        {
          "indexed": false,
          "internalType": "uint256",
          "name": "timestamp",
          "type": "uint256"
        }
      ],
      "name": "Deposit",
      "type": "event"
    },
    {
      "anonymous": false,
      "inputs": [
        {
          "indexed": true,
          "internalType": "address",
          "name": "user",
          "type": "address"
        },
        {
          "indexed": false,
          "internalType": "uint256",
          "name": "amount",
          "type": "uint256"
        },
        {
          "indexed": false,
          "internalType": "string",
          "name": "category",
          "type": "string"
        },
        {
          "indexed": false,
          "internalType": "string",
          "name": "description",
          "type": "string"
        }
      ],
      "name": "ExpenseAdded",
      "type": "event"
    },
    {
      "anonymous": false,
      "inputs": [
        {
          "indexed": true,
          "internalType": "address",
          "name": "investor",
          "type": "address"
        },
        {
          "indexed": false,
          "internalType": "uint256",
          "name": "amount",
          "type": "uint256"
        },
        {
          "indexed": false,
          "internalType": "string",
          "name": "investmentType",
          "type": "string"
        }
      ],
      "name": "InvestmentMade",
      "type": "event"
    },
    {
      "anonymous": false,
      "inputs": [
        {
          "indexed": true,
          "internalType": "address",
          "name": "investor",
          "type": "address"
        },
        {
          "indexed": false,
          "internalType": "uint256",
          "name": "amount",
          "type": "uint256"
        },
        {
          "indexed": false,
          "internalType": "string",
          "name": "investmentType",
          "type": "string"
        }
      ],
      "name": "InvestmentWithdrawn",
      "type": "event"
    },
    {
      "anonymous": false,
      "inputs": [
        {
          "indexed": true,
          "internalType": "address",
          "name": "borrower",
          "type": "address"
        },
        {
          "indexed": false,
          "internalType": "uint256",
          "name": "amount",
          "type": "uint256"
        }
      ],
      "name": "LoanRepaid",
      "type": "event"
    },
    {
      "anonymous": false,
      "inputs": [
        {
          "indexed": true,
          "internalType": "address",
          "name": "borrower",
          "type": "address"
        },
        {
          "indexed": false,
          "internalType": "uint256",
          "name": "amount",
          "type": "uint256"
        },
        {
          "indexed": false,
          "internalType": "uint256",
          "name": "interestRate",
          "type": "uint256"
        },
        {
          "indexed": false,
          "internalType": "uint256",
          "name": "duration",
          "type": "uint256"
        }
      ],
      "name": "LoanTaken",
      "type": "event"
    },
    {
      "anonymous": false,
      "inputs": [
        {
          "indexed": true,
          "internalType": "address",
          "name": "previousOwner",
          "type": "address"
        },
        {
          "indexed": true,
          "internalType": "address",
          "name": "newOwner",
          "type": "address"
        }
      ],
      "name": "OwnershipTransferred",
      "type": "event"
    },
    {
      "anonymous": false,
      "inputs": [
        {
          "indexed": true,
          "internalType": "address",
          "name": "user",
          "type": "address"
        },
        {
          "indexed": false,
          "internalType": "string",
          "name": "name",
          "type": "string"
        }
      ],
      "name": "SavingsGoalCompleted",
      "type": "event"
    },
    {
      "anonymous": false,
      "inputs": [
        {
          "indexed": true,
          "internalType": "address",
          "name": "user",
          "type": "address"
        },
        {
          "indexed": false,
          "internalType": "string",
          "name": "name",
          "type": "string"
        },
        {
          "indexed": false,
          "internalType": "uint256",
          "name": "amount",
          "type": "uint256"
        }
      ],
      "name": "SavingsGoalContributed",
      "type": "event"
    },
    {
      "anonymous": false,
      "inputs": [
        {
          "indexed": true,
          "internalType": "address",
          "name": "user",
          "type": "address"
        },
        {
          "indexed": false,
          "internalType": "string",
          "name": "name",
          "type": "string"
        },
        {
          "indexed": false,
          "internalType": "uint256",
          "name": "targetAmount",
          "type": "uint256"
        },
        {
          "indexed": false,
          "internalType": "uint256",
          "name": "deadline",
          "type": "uint256"
        }
      ],
      "name": "SavingsGoalCreated",
      "type": "event"
    },
    {
      "anonymous": false,
      "inputs": [
        {
          "indexed": true,
          "internalType": "address",
          "name": "user",
          "type": "address"
        },
        {
          "indexed": false,
          "internalType": "uint256",
          "name": "amount",
          "type": "uint256"
        },
        {
          "indexed": false,
          "internalType": "uint256",
          "name": "timestamp",
          "type": "uint256"
        }
      ],
      "name": "Withdrawal",
      "type": "event"
    },
    {
      "inputs": [
        {
          "internalType": "string",
          "name": "category",
          "type": "string"
        },
        {
          "internalType": "string",
          "name": "description",
          "type": "string"
        }
      ],
      "name": "addExpense",
      "outputs": [],
      "stateMutability": "payable",
      "type": "function"
    },
    {
      "inputs": [
        {
          "internalType": "address",
          "name": "",
          "type": "address"
        }
      ],
      "name": "balances",
      "outputs": [
        {
          "internalType": "uint256",
          "name": "",
          "type": "uint256"
        }
      ],
      "stateMutability": "view",
      "type": "function"
    },
    {
      "inputs": [
        {
          "internalType": "address",
          "name": "",
          "type": "address"
        },
        {
          "internalType": "uint256",
          "name": "",
          "type": "uint256"
        }
      ],
      "name": "budgets",
      "outputs": [
        {
          "internalType": "address",
          "name": "user",
          "type": "address"
        },
        {
          "internalType": "string",
          "name": "category",
          "type": "string"
        },
        {
          "internalType": "uint256",
          "name": "amount",
          "type": "uint256"
        },
        {
          "internalType": "uint256",
          "name": "month",
          "type": "uint256"
        },
        {
          "internalType": "uint256",
          "name": "year",
          "type": "uint256"
        }
      ],
      "stateMutability": "view",
      "type": "function"
    },
    {
      "inputs": [
        {
          "internalType": "uint256",
          "name": "goalIndex",
          "type": "uint256"
        }
      ],
      "name": "contributeToSavingsGoal",
      "outputs": [],
      "stateMutability": "payable",
      "type": "function"
    },
    {
      "inputs": [
        {
          "internalType": "string",
          "name": "name",
          "type": "string"
        },
        {
          "internalType": "string",
          "name": "description",
          "type": "string"
        },
        {
          "internalType": "uint256",
          "name": "targetAmount",
          "type": "uint256"
        },
        {
          "internalType": "uint256",
          "name": "deadline",
          "type": "uint256"
        }
      ],
      "name": "createSavingsGoal",
      "outputs": [],
      "stateMutability": "nonpayable",
      "type": "function"
    },
    {
      "inputs": [],
      "name": "deposit",
      "outputs": [],
      "stateMutability": "payable",
      "type": "function"
    },
    {
      "inputs": [
        {
          "internalType": "address",
          "name": "",
          "type": "address"
        },
        {
          "internalType": "uint256",
          "name": "",
          "type": "uint256"
        }
      ],
      "name": "expenses",
      "outputs": [
        {
          "internalType": "address",
          "name": "user",
          "type": "address"
        },
        {
          "internalType": "uint256",
          "name": "amount",
          "type": "uint256"
        },
        {
          "internalType": "string",
          "name": "category",
          "type": "string"
        },
        {
          "internalType": "uint256",
          "name": "timestamp",
          "type": "uint256"
        },
        {
          "internalType": "string",
          "name": "description",
          "type": "string"
        }
      ],
      "stateMutability": "view",
      "type": "function"
    },
    {
      "inputs": [],
      "name": "getBalance",
      "outputs": [
        {
          "internalType": "uint256",
          "name": "",
          "type": "uint256"
        }
      ],
      "stateMutability": "view",
      "type": "function"
    },
    {
      "inputs": [],
      "name": "getBudgets",
      "outputs": [
        {
          "components": [
            {
              "internalType": "address",
              "name": "user",
              "type": "address"
            },
            {
              "internalType": "string",
              "name": "category",
              "type": "string"
            },
            {
              "internalType": "uint256",
              "name": "amount",
              "type": "uint256"
            },
            {
              "internalType": "uint256",
              "name": "month",
              "type": "uint256"
            },
            {
              "internalType": "uint256",
              "name": "year",
              "type": "uint256"
            }
          ],
          "internalType": "struct Budgets.Budget[]",
          "name": "",
          "type": "tuple[]"
        }
      ],
      "stateMutability": "view",
      "type": "function"
    },
    {
      "inputs": [],
      "name": "getExpenses",
      "outputs": [
        {
          "components": [
            {
              "internalType": "address",
              "name": "user",
              "type": "address"
            },
            {
              "internalType": "uint256",
              "name": "amount",
              "type": "uint256"
            },
            {
              "internalType": "string",
              "name": "category",
              "type": "string"
            },
            {
              "internalType": "uint256",
              "name": "timestamp",
              "type": "uint256"
            },
            {
              "internalType": "string",
              "name": "description",
              "type": "string"
            }
          ],
          "internalType": "struct Expenses.Expense[]",
          "name": "",
          "type": "tuple[]"
        }
      ],
      "stateMutability": "view",
      "type": "function"
    },
    {
      "inputs": [],
      "name": "getInvestments",
      "outputs": [
        {
          "components": [
            {
              "internalType": "address",
              "name": "investor",
              "type": "address"
            },
            {
              "internalType": "uint256",
              "name": "amount",
              "type": "uint256"
            },
            {
              "internalType": "string",
              "name": "investmentType",
              "type": "string"
            },
            {
              "internalType": "uint256",
              "name": "startTime",
              "type": "uint256"
            },
            {
              "internalType": "bool",
              "name": "active",
              "type": "bool"
            }
          ],
          "internalType": "struct Investments.Investment[]",
          "name": "",
          "type": "tuple[]"
        }
      ],
      "stateMutability": "view",
      "type": "function"
    },
    {
      "inputs": [],
      "name": "getLoans",
      "outputs": [
        {
          "components": [
            {
              "internalType": "address",
              "name": "borrower",
              "type": "address"
            },
            {
              "internalType": "uint256",
              "name": "amount",
              "type": "uint256"
            },
            {
              "internalType": "uint256",
              "name": "interestRate",
              "type": "uint256"
            },
            {
              "internalType": "uint256",
              "name": "duration",
              "type": "uint256"
            },
            {
              "internalType": "uint256",
              "name": "startTime",
              "type": "uint256"
            },
            {
              "internalType": "bool",
              "name": "active",
              "type": "bool"
            },
            {
              "internalType": "bool",
              "name": "repaid",
              "type": "bool"
            }
          ],
          "internalType": "struct Loans.Loan[]",
          "name": "",
          "type": "tuple[]"
        }
      ],
      "stateMutability": "view",
      "type": "function"
    },
    {
      "inputs": [],
      "name": "getSavingsGoals",
      "outputs": [
        {
          "components": [
            {
              "internalType": "address",
              "name": "user",
              "type": "address"
            },
            {
              "internalType": "string",
              "name": "name",
              "type": "string"
            },
            {
              "internalType": "string",
              "name": "description",
              "type": "string"
            },
            {
              "internalType": "uint256",
              "name": "targetAmount",
              "type": "uint256"
            },
            {
              "internalType": "uint256",
              "name": "currentAmount",
              "type": "uint256"
            },
            {
              "internalType": "uint256",
              "name": "deadline",
              "type": "uint256"
            },
            {
              "internalType": "bool",
              "name": "completed",
              "type": "bool"
            }
          ],
          "internalType": "struct SavingsGoals.SavingsGoal[]",
          "name": "",
          "type": "tuple[]"
        }
      ],
      "stateMutability": "view",
      "type": "function"
    },
    {
      "inputs": [],
      "name": "getTransactions",
      "outputs": [
        {
          "components": [
            {
              "internalType": "address",
              "name": "user",
              "type": "address"
            },
            {
              "internalType": "uint256",
              "name": "amount",
              "type": "uint256"
            },
            {
              "internalType": "string",
              "name": "transactionType",
              "type": "string"
            },
            {
              "internalType": "uint256",
              "name": "timestamp",
              "type": "uint256"
            },
            {
              "internalType": "string",
              "name": "details",
              "type": "string"
            }
          ],
          "internalType": "struct FinanceCore.Transaction[]",
          "name": "",
          "type": "tuple[]"
        }
      ],
      "stateMutability": "view",
      "type": "function"
    },
    {
      "inputs": [
        {
          "internalType": "address",
          "name": "",
          "type": "address"
        },
        {
          "internalType": "uint256",
          "name": "",
          "type": "uint256"
        }
      ],
      "name": "investments",
      "outputs": [
        {
          "internalType": "address",
          "name": "investor",
          "type": "address"
        },
        {
          "internalType": "uint256",
          "name": "amount",
          "type": "uint256"
        },
        {
          "internalType": "string",
          "name": "investmentType",
          "type": "string"
        },
        {
          "internalType": "uint256",
          "name": "startTime",
          "type": "uint256"
        },
        {
          "internalType": "bool",
          "name": "active",
          "type": "bool"
        }
      ],
      "stateMutability": "view",
      "type": "function"
    },
    {
      "inputs": [
        {
          "internalType": "address",
          "name": "",
          "type": "address"
        },
        {
          "internalType": "uint256",
          "name": "",
          "type": "uint256"
        }
      ],
      "name": "loans",
      "outputs": [
        {
          "internalType": "address",
          "name": "borrower",
          "type": "address"
        },
        {
          "internalType": "uint256",
          "name": "amount",
          "type": "uint256"
        },
        {
          "internalType": "uint256",
          "name": "interestRate",
          "type": "uint256"
        },
        {
          "internalType": "uint256",
          "name": "duration",
          "type": "uint256"
        },
        {
          "internalType": "uint256",
          "name": "startTime",
          "type": "uint256"
        },
        {
          "internalType": "bool",
          "name": "active",
          "type": "bool"
        },
        {
          "internalType": "bool",
          "name": "repaid",
          "type": "bool"
        }
      ],
      "stateMutability": "view",
      "type": "function"
    },
    {
      "inputs": [
        {
          "internalType": "string",
          "name": "investmentType",
          "type": "string"
        }
      ],
      "name": "makeInvestment",
      "outputs": [],
      "stateMutability": "payable",
      "type": "function"
    },
    {
      "inputs": [],
      "name": "owner",
      "outputs": [
        {
          "internalType": "address",
          "name": "",
          "type": "address"
        }
      ],
      "stateMutability": "view",
      "type": "function"
    },
    {
      "inputs": [],
      "name": "renounceOwnership",
      "outputs": [],
      "stateMutability": "nonpayable",
      "type": "function"
    },
    {
      "inputs": [
        {
          "internalType": "uint256",
          "name": "loanIndex",
          "type": "uint256"
        }
      ],
      "name": "repayLoan",
      "outputs": [],
      "stateMutability": "payable",
      "type": "function"
    },
    {
      "inputs": [
        {
          "internalType": "address",
          "name": "",
          "type": "address"
        },
        {
          "internalType": "uint256",
          "name": "",
          "type": "uint256"
        }
      ],
      "name": "savingsGoals",
      "outputs": [
        {
          "internalType": "address",
          "name": "user",
          "type": "address"
        },
        {
          "internalType": "string",
          "name": "name",
          "type": "string"
        },
        {
          "internalType": "string",
          "name": "description",
          "type": "string"
        },
        {
          "internalType": "uint256",
          "name": "targetAmount",
          "type": "uint256"
        },
        {
          "internalType": "uint256",
          "name": "currentAmount",
          "type": "uint256"
        },
        {
          "internalType": "uint256",
          "name": "deadline",
          "type": "uint256"
        },
        {
          "internalType": "bool",
          "name": "completed",
          "type": "bool"
        }
      ],
      "stateMutability": "view",
      "type": "function"
    },
    {
      "inputs": [
        {
          "internalType": "string",
          "name": "category",
          "type": "string"
        },
        {
          "internalType": "uint256",
          "name": "amount",
          "type": "uint256"
        },
        {
          "internalType": "uint256",
          "name": "month",
          "type": "uint256"
        },
        {
          "internalType": "uint256",
          "name": "year",
          "type": "uint256"
        }
      ],
      "name": "setBudget",
      "outputs": [],
      "stateMutability": "nonpayable",
      "type": "function"
    },
    {
      "inputs": [
        {
          "internalType": "uint256",
          "name": "amount",
          "type": "uint256"
        },
        {
          "internalType": "uint256",
          "name": "interestRate",
          "type": "uint256"
        },
        {
          "internalType": "uint256",
          "name": "duration",
          "type": "uint256"
        }
      ],
      "name": "takeLoan",
      "outputs": [],
      "stateMutability": "nonpayable",
      "type": "function"
    },
    {
      "inputs": [
        {
          "internalType": "address",
          "name": "",
          "type": "address"
        },
        {
          "internalType": "uint256",
          "name": "",
          "type": "uint256"
        }
      ],
      "name": "transactions",
      "outputs": [
        {
          "internalType": "address",
          "name": "user",
          "type": "address"
        },
        {
          "internalType": "uint256",
          "name": "amount",
          "type": "uint256"
        },
        {
          "internalType": "string",
          "name": "transactionType",
          "type": "string"
        },
        {
          "internalType": "uint256",
          "name": "timestamp",
          "type": "uint256"
        },
        {
          "internalType": "string",
          "name": "details",
          "type": "string"
        }
      ],
      "stateMutability": "view",
      "type": "function"
    },
    {
      "inputs": [
        {
          "internalType": "address",
          "name": "newOwner",
          "type": "address"
        }
      ],
      "name": "transferOwnership",
      "outputs": [],
      "stateMutability": "nonpayable",
      "type": "function"
    },
    {
      "inputs": [
        {
          "internalType": "uint256",
          "name": "amount",
          "type": "uint256"
        }
      ],
      "name": "withdraw",
      "outputs": [],
      "stateMutability": "nonpayable",
      "type": "function"
    },
    {
      "inputs": [
        {
          "internalType": "uint256",
          "name": "investmentIndex",
          "type": "uint256"
        }
      ],
      "name": "withdrawInvestment",
      "outputs": [],
      "stateMutability": "nonpayable",
      "type": "function"
    }
  ],
  "bytecode": "0x60806040523480156200001157600080fd5b5033600073ffffffffffffffffffffffffffffffffffffffff168173ffffffffffffffffffffffffffffffffffffffff1603620000885760006040517f1e4fbdf70000000000000000000000000000000000000000000000000000000081526004016200007f9190620001b0565b60405180910390fd5b6200009981620000a760201b60201c565b5060018081905550620001cd565b60008060009054906101000a900473ffffffffffffffffffffffffffffffffffffffff169050816000806101000a81548173ffffffffffffffffffffffffffffffffffffffff021916908373ffffffffffffffffffffffffffffffffffffffff1602179055508173ffffffffffffffffffffffffffffffffffffffff168173ffffffffffffffffffffffffffffffffffffffff167f8be0079c531659141344cd1fd0a4f28419497f9722a3daafe3b4186f6b6457e060405160405180910390a35050565b600073ffffffffffffffffffffffffffffffffffffffff82169050919050565b600062000198826200016b565b9050919050565b620001aa816200018b565b82525050565b6000602082019050620001c760008301846200019f565b92915050565b615e8080620001dd6000396000f3fe60806040526004361061019c5760003560e01c806383920e90116100ec578063ab7b1c891161008a578063d624722d11610064578063d624722d14610589578063e8efc6b8146105b4578063f2fde38b146105dd578063ff47c2de146106065761019c565b8063ab7b1c8914610547578063b87165b214610563578063d0e30db01461057f5761019c565b80638da5cb5b116100c65780638da5cb5b1461046b57806398c61c3714610496578063a546a31b146104d9578063aa4a87111461051c5761019c565b806383920e90146103ec57806383a36a91146104175780638941ab35146104425761019c565b806327e235e3116101595780633e6d9770116101335780633e6d9770146103375780635c6cce8414610378578063715018a61461039457806382a8a755146103ab5761019c565b806327e235e3146102a65780632e1a7d4d146102e3578063304911441461030c5761019c565b806310c9e386146101a157806312065fe0146101ca57806314538128146101f55780631790add5146102365780631f5eb613146102525780632037fcbf1461027d575b600080fd5b3480156101ad57600080fd5b506101c860048036038101906101c39190614037565b610647565b005b3480156101d657600080fd5b506101df610ada565b6040516101ec9190614099565b60405180910390f35b34801561020157600080fd5b5061021c60048036038101906102179190614112565b610b21565b60405161022d9594939291906141f1565b60405180910390f35b610250600480360381019061024b9190614387565b610ca4565b005b34801561025e57600080fd5b50610267610fef565b60405161027491906145e7565b60405180910390f35b34801561028957600080fd5b506102a4600480360381019061029f9190614609565b61123e565b005b3480156102b257600080fd5b506102cd60048036038101906102c89190614636565b6115f7565b6040516102da9190614099565b60405180910390f35b3480156102ef57600080fd5b5061030a60048036038101906103059190614609565b61160f565b005b34801561031857600080fd5b5061032161196c565b60405161032e919061479b565b60405180910390f35b34801561034357600080fd5b5061035e60048036038101906103599190614112565b611b0e565b60405161036f9594939291906147cc565b60405180910390f35b610392600480360381019061038d9190614826565b611c16565b005b3480156103a057600080fd5b506103a9611f69565b005b3480156103b757600080fd5b506103d260048036038101906103cd9190614112565b611f7d565b6040516103e395949392919061486f565b60405180910390f35b3480156103f857600080fd5b50610401612078565b60405161040e9190614a08565b60405180910390f35b34801561042357600080fd5b5061042c6122a2565b6040516104399190614b69565b60405180910390f35b34801561044e57600080fd5b5061046960048036038101906104649190614b8b565b6124cc565b005b34801561047757600080fd5b50610480612988565b60405161048d9190614c0e565b60405180910390f35b3480156104a257600080fd5b506104bd60048036038101906104b89190614112565b6129b1565b6040516104d09796959493929190614c29565b60405180910390f35b3480156104e557600080fd5b5061050060048036038101906104fb9190614112565b612a4a565b6040516105139796959493929190614c98565b60405180910390f35b34801561052857600080fd5b50610531612be6565b60405161053e9190614e52565b60405180910390f35b610561600480360381019061055c9190614609565b612d36565b005b61057d60048036038101906105789190614609565b61318f565b005b6105876135c7565b005b34801561059557600080fd5b5061059e61384a565b6040516105ab9190614fac565b60405180910390f35b3480156105c057600080fd5b506105db60048036038101906105d69190614fce565b6139fd565b005b3480156105e957600080fd5b5061060460048036038101906105ff9190614636565b613c42565b005b34801561061257600080fd5b5061062d60048036038101906106289190614112565b613cc8565b60405161063e9594939291906141f1565b60405180910390f35b61064f613e4b565b60008311610692576040517f08c379a0000000000000000000000000000000000000000000000000000000008152600401610689906150b9565b60405180910390fd5b6000821180156106a3575060648211155b6106e2576040517f08c379a00000000000000000000000000000000000000000000000000000000081526004016106d990615125565b60405180910390fd5b60008111610725576040517f08c379a000000000000000000000000000000000000000000000000000000000815260040161071c906150b9565b60405180910390fd5b600460003373ffffffffffffffffffffffffffffffffffffffff1673ffffffffffffffffffffffffffffffffffffffff1681526020019081526020016000206040518060e001604052803373ffffffffffffffffffffffffffffffffffffffff16815260200185815260200184815260200183815260200142815260200160011515815260200160001515815250908060018154018082558091505060019003906000526020600020906006020160009091909190915060008201518160000160006101000a81548173ffffffffffffffffffffffffffffffffffffffff021916908373ffffffffffffffffffffffffffffffffffffffff1602179055506020820151816001015560408201518160020155606082015181600301556080820151816004015560a08201518160050160006101000a81548160ff02191690831515021790555060c08201518160050160016101000a81548160ff021916908315150217905550505082600260003373ffffffffffffffffffffffffffffffffffffffff1673ffffffffffffffffffffffffffffffffffffffff16815260200190815260200160002060008282546108dc9190615174565b92505081905550600360003373ffffffffffffffffffffffffffffffffffffffff1673ffffffffffffffffffffffffffffffffffffffff1681526020019081526020016000206040518060a001604052803373ffffffffffffffffffffffffffffffffffffffff1681526020018581526020016040518060400160405280600481526020017f4c6f616e0000000000000000000000000000000000000000000000000000000081525081526020014281526020016040518060400160405280600a81526020017f4c6f616e2074616b656e00000000000000000000000000000000000000000000815250815250908060018154018082558091505060019003906000526020600020906005020160009091909190915060008201518160000160006101000a81548173ffffffffffffffffffffffffffffffffffffffff021916908373ffffffffffffffffffffffffffffffffffffffff160217905550602082015181600101556040820151816002019081610a5891906153b4565b50606082015181600301556080820151816004019081610a7891906153b4565b5050503373ffffffffffffffffffffffffffffffffffffffff167f1daae93c0719c540c3891d8a11e5f3b79cbd03028f1fa7e520d31c1a87843335848484604051610ac593929190615486565b60405180910390a2610ad5613e91565b505050565b6000600260003373ffffffffffffffffffffffffffffffffffffffff1673ffffffffffffffffffffffffffffffffffffffff16815260200190815260200160002054905090565b60036020528160005260406000208181548110610b3d57600080fd5b9060005260206000209060050201600091509150508060000160009054906101000a900473ffffffffffffffffffffffffffffffffffffffff1690806001015490806002018054610b8d906151d7565b80601f0160208091040260200160405190810160405280929190818152602001828054610bb9906151d7565b8015610c065780601f10610bdb57610100808354040283529160200191610c06565b820191906000526020600020905b815481529060010190602001808311610be957829003601f168201915b505050505090806003015490806004018054610c21906151d7565b80601f0160208091040260200160405190810160405280929190818152602001828054610c4d906151d7565b8015610c9a5780601f10610c6f57610100808354040283529160200191610c9a565b820191906000526020600020905b815481529060010190602001808311610c7d57829003601f168201915b5050505050905085565b60003411610ce7576040517f08c379a0000000000000000000000000000000000000000000000000000000008152600401610cde906150b9565b60405180910390fd5b600660003373ffffffffffffffffffffffffffffffffffffffff1673ffffffffffffffffffffffffffffffffffffffff1681526020019081526020016000206040518060a001604052803373ffffffffffffffffffffffffffffffffffffffff16815260200134815260200184815260200142815260200183815250908060018154018082558091505060019003906000526020600020906005020160009091909190915060008201518160000160006101000a81548173ffffffffffffffffffffffffffffffffffffffff021916908373ffffffffffffffffffffffffffffffffffffffff160217905550602082015181600101556040820151816002019081610df291906153b4565b50606082015181600301556080820151816004019081610e1291906153b4565b505050600360003373ffffffffffffffffffffffffffffffffffffffff1673ffffffffffffffffffffffffffffffffffffffff1681526020019081526020016000206040518060a001604052803373ffffffffffffffffffffffffffffffffffffffff1681526020013481526020016040518060400160405280600781526020017f457870656e73650000000000000000000000000000000000000000000000000081525081526020014281526020018484604051602001610ed5929190615545565b604051602081830303815290604052815250908060018154018082558091505060019003906000526020600020906005020160009091909190915060008201518160000160006101000a81548173ffffffffffffffffffffffffffffffffffffffff021916908373ffffffffffffffffffffffffffffffffffffffff160217905550602082015181600101556040820151816002019081610f7691906153b4565b50606082015181600301556080820151816004019081610f9691906153b4565b5050503373ffffffffffffffffffffffffffffffffffffffff167f59a08f9e756c529de895f94e6cf8f65c0f0f55eb24b09d1650cc3c30e3d236f6348484604051610fe393929190615574565b60405180910390a25050565b6060600860003373ffffffffffffffffffffffffffffffffffffffff1673ffffffffffffffffffffffffffffffffffffffff168152602001908152602001600020805480602002602001604051908101604052809291908181526020016000905b8282101561123557838290600052602060002090600702016040518060e00160405290816000820160009054906101000a900473ffffffffffffffffffffffffffffffffffffffff1673ffffffffffffffffffffffffffffffffffffffff1673ffffffffffffffffffffffffffffffffffffffff1681526020016001820180546110d9906151d7565b80601f0160208091040260200160405190810160405280929190818152602001828054611105906151d7565b80156111525780601f1061112757610100808354040283529160200191611152565b820191906000526020600020905b81548152906001019060200180831161113557829003601f168201915b5050505050815260200160028201805461116b906151d7565b80601f0160208091040260200160405190810160405280929190818152602001828054611197906151d7565b80156111e45780601f106111b9576101008083540402835291602001916111e4565b820191906000526020600020905b8154815290600101906020018083116111c757829003601f168201915b505050505081526020016003820154815260200160048201548152602001600582015481526020016006820160009054906101000a900460ff16151515158152505081526020019060010190611050565b50505050905090565b611246613e4b565b600560003373ffffffffffffffffffffffffffffffffffffffff1673ffffffffffffffffffffffffffffffffffffffff1681526020019081526020016000208054905081106112ca576040517f08c379a00000000000000000000000000000000000000000000000000000000081526004016112c190615605565b60405180910390fd5b6000600560003373ffffffffffffffffffffffffffffffffffffffff1673ffffffffffffffffffffffffffffffffffffffff168152602001908152602001600020828154811061131d5761131c615625565b5b906000526020600020906005020190508060040160009054906101000a900460ff1661137e576040517f08c379a0000000000000000000000000000000000000000000000000000000008152600401611375906156a0565b60405180910390fd5b60006064606e836001015461139391906156c0565b61139d9190615731565b905060008260040160006101000a81548160ff02191690831515021790555080600260003373ffffffffffffffffffffffffffffffffffffffff1673ffffffffffffffffffffffffffffffffffffffff168152602001908152602001600020600082825461140b9190615174565b92505081905550600360003373ffffffffffffffffffffffffffffffffffffffff1673ffffffffffffffffffffffffffffffffffffffff1681526020019081526020016000206040518060a001604052803373ffffffffffffffffffffffffffffffffffffffff1681526020018381526020016040518060400160405280601181526020017f496e766573746d656e742052657475726e0000000000000000000000000000008152508152602001428152602001846002016040516020016114d39190615831565b604051602081830303815290604052815250908060018154018082558091505060019003906000526020600020906005020160009091909190915060008201518160000160006101000a81548173ffffffffffffffffffffffffffffffffffffffff021916908373ffffffffffffffffffffffffffffffffffffffff16021790555060208201518160010155604082015181600201908161157491906153b4565b5060608201518160030155608082015181600401908161159491906153b4565b5050503373ffffffffffffffffffffffffffffffffffffffff167fc2c65a8987d388025391b993490730e0e63a6007f953487a6d8e75ebd92b7f7782846002016040516115e29291906158d7565b60405180910390a250506115f4613e91565b50565b60026020528060005260406000206000915090505481565b611617613e4b565b80600260003373ffffffffffffffffffffffffffffffffffffffff1673ffffffffffffffffffffffffffffffffffffffff168152602001908152602001600020541015611699576040517f08c379a000000000000000000000000000000000000000000000000000000000815260040161169090615953565b60405180910390fd5b600081116116dc576040517f08c379a00000000000000000000000000000000000000000000000000000000081526004016116d3906150b9565b60405180910390fd5b80600260003373ffffffffffffffffffffffffffffffffffffffff1673ffffffffffffffffffffffffffffffffffffffff168152602001908152602001600020600082825461172b9190615973565b925050819055503373ffffffffffffffffffffffffffffffffffffffff166108fc829081150290604051600060405180830381858888f19350505050158015611778573d6000803e3d6000fd5b50600360003373ffffffffffffffffffffffffffffffffffffffff1673ffffffffffffffffffffffffffffffffffffffff1681526020019081526020016000206040518060a001604052803373ffffffffffffffffffffffffffffffffffffffff1681526020018381526020016040518060400160405280600a81526020017f5769746864726177616c0000000000000000000000000000000000000000000081525081526020014281526020016040518060400160405280600e81526020017f455448207769746864726177616c000000000000000000000000000000000000815250815250908060018154018082558091505060019003906000526020600020906005020160009091909190915060008201518160000160006101000a81548173ffffffffffffffffffffffffffffffffffffffff021916908373ffffffffffffffffffffffffffffffffffffffff1602179055506020820151816001015560408201518160020190816118ee91906153b4565b5060608201518160030155608082015181600401908161190e91906153b4565b5050503373ffffffffffffffffffffffffffffffffffffffff167fdf273cb619d95419a9cd0ec88123a0538c85064229baa6363788f743fff90deb82426040516119599291906159a7565b60405180910390a2611969613e91565b50565b6060600760003373ffffffffffffffffffffffffffffffffffffffff1673ffffffffffffffffffffffffffffffffffffffff168152602001908152602001600020805480602002602001604051908101604052809291908181526020016000905b82821015611b0557838290600052602060002090600502016040518060a00160405290816000820160009054906101000a900473ffffffffffffffffffffffffffffffffffffffff1673ffffffffffffffffffffffffffffffffffffffff1673ffffffffffffffffffffffffffffffffffffffff168152602001600182018054611a56906151d7565b80601f0160208091040260200160405190810160405280929190818152602001828054611a82906151d7565b8015611acf5780601f10611aa457610100808354040283529160200191611acf565b820191906000526020600020905b815481529060010190602001808311611ab257829003601f168201915b505050505081526020016002820154815260200160038201548152602001600482015481525050815260200190600101906119cd565b50505050905090565b60056020528160005260406000208181548110611b2a57600080fd5b9060005260206000209060050201600091509150508060000160009054906101000a900473ffffffffffffffffffffffffffffffffffffffff1690806001015490806002018054611b7a906151d7565b80601f0160208091040260200160405190810160405280929190818152602001828054611ba6906151d7565b8015611bf35780601f10611bc857610100808354040283529160200191611bf3565b820191906000526020600020905b815481529060010190602001808311611bd657829003601f168201915b5050505050908060030154908060040160009054906101000a900460ff16905085565b60003411611c59576040517f08c379a0000000000000000000000000000000000000000000000000000000008152600401611c50906150b9565b60405180910390fd5b600560003373ffffffffffffffffffffffffffffffffffffffff1673ffffffffffffffffffffffffffffffffffffffff1681526020019081526020016000206040518060a001604052803373ffffffffffffffffffffffffffffffffffffffff16815260200134815260200183815260200142815260200160011515815250908060018154018082558091505060019003906000526020600020906005020160009091909190915060008201518160000160006101000a81548173ffffffffffffffffffffffffffffffffffffffff021916908373ffffffffffffffffffffffffffffffffffffffff160217905550602082015181600101556040820151816002019081611d6791906153b4565b506060820151816003015560808201518160040160006101000a81548160ff0219169083151502179055505050600360003373ffffffffffffffffffffffffffffffffffffffff1673ffffffffffffffffffffffffffffffffffffffff1681526020019081526020016000206040518060a001604052803373ffffffffffffffffffffffffffffffffffffffff1681526020013481526020016040518060400160405280600a81526020017f496e766573746d656e7400000000000000000000000000000000000000000000815250815260200142815260200183604051602001611e529190615a1c565b604051602081830303815290604052815250908060018154018082558091505060019003906000526020600020906005020160009091909190915060008201518160000160006101000a81548173ffffffffffffffffffffffffffffffffffffffff021916908373ffffffffffffffffffffffffffffffffffffffff160217905550602082015181600101556040820151816002019081611ef391906153b4565b50606082015181600301556080820151816004019081611f1391906153b4565b5050503373ffffffffffffffffffffffffffffffffffffffff167fea69dd6dce8623fa8fa2baae44e1a98af1571f897140a9dc701d273d5ae4bc183483604051611f5e929190615a3e565b60405180910390a250565b611f71613e9a565b611f7b6000613f21565b565b60076020528160005260406000208181548110611f9957600080fd5b9060005260206000209060050201600091509150508060000160009054906101000a900473ffffffffffffffffffffffffffffffffffffffff1690806001018054611fe3906151d7565b80601f016020809104026020016040519081016040528092919081815260200182805461200f906151d7565b801561205c5780601f106120315761010080835404028352916020019161205c565b820191906000526020600020905b81548152906001019060200180831161203f57829003601f168201915b5050505050908060020154908060030154908060040154905085565b6060600360003373ffffffffffffffffffffffffffffffffffffffff1673ffffffffffffffffffffffffffffffffffffffff168152602001908152602001600020805480602002602001604051908101604052809291908181526020016000905b8282101561229957838290600052602060002090600502016040518060a00160405290816000820160009054906101000a900473ffffffffffffffffffffffffffffffffffffffff1673ffffffffffffffffffffffffffffffffffffffff1673ffffffffffffffffffffffffffffffffffffffff1681526020016001820154815260200160028201805461216c906151d7565b80601f0160208091040260200160405190810160405280929190818152602001828054612198906151d7565b80156121e55780601f106121ba576101008083540402835291602001916121e5565b820191906000526020600020905b8154815290600101906020018083116121c857829003601f168201915b5050505050815260200160038201548152602001600482018054612208906151d7565b80601f0160208091040260200160405190810160405280929190818152602001828054612234906151d7565b80156122815780601f1061225657610100808354040283529160200191612281565b820191906000526020600020905b81548152906001019060200180831161226457829003601f168201915b505050505081525050815260200190600101906120d9565b50505050905090565b6060600660003373ffffffffffffffffffffffffffffffffffffffff1673ffffffffffffffffffffffffffffffffffffffff168152602001908152602001600020805480602002602001604051908101604052809291908181526020016000905b828210156124c357838290600052602060002090600502016040518060a00160405290816000820160009054906101000a900473ffffffffffffffffffffffffffffffffffffffff1673ffffffffffffffffffffffffffffffffffffffff1673ffffffffffffffffffffffffffffffffffffffff16815260200160018201548152602001600282018054612396906151d7565b80601f01602080910402602001604051908101604052809291908181526020018280546123c2906151d7565b801561240f5780601f106123e45761010080835404028352916020019161240f565b820191906000526020600020905b8154815290600101906020018083116123f257829003601f168201915b5050505050815260200160038201548152602001600482018054612432906151d7565b80601f016020809104026020016040519081016040528092919081815260200182805461245e906151d7565b80156124ab5780601f10612480576101008083540402835291602001916124ab565b820191906000526020600020905b81548152906001019060200180831161248e57829003601f168201915b50505050508152505081526020019060010190612303565b50505050905090565b6000831161250f576040517f08c379a0000000000000000000000000000000000000000000000000000000008152600401612506906150b9565b60405180910390fd5b6000821180156125205750600c8211155b61255f576040517f08c379a000000000000000000000000000000000000000000000000000000000815260040161255690615aba565b60405180910390fd5b6107e78110156125a4576040517f08c379a000000000000000000000000000000000000000000000000000000000815260040161259b90615b26565b60405180910390fd5b6000805b600760003373ffffffffffffffffffffffffffffffffffffffff1673ffffffffffffffffffffffffffffffffffffffff1681526020019081526020016000208054905081101561280457856040516020016126039190615b46565b60405160208183030381529060405280519060200120600760003373ffffffffffffffffffffffffffffffffffffffff1673ffffffffffffffffffffffffffffffffffffffff168152602001908152602001600020828154811061266a57612669615625565b5b906000526020600020906005020160010160405160200161268b9190615b5d565b6040516020818303038152906040528051906020012014801561270f575083600760003373ffffffffffffffffffffffffffffffffffffffff1673ffffffffffffffffffffffffffffffffffffffff16815260200190815260200160002082815481106126fb576126fa615625565b5b906000526020600020906005020160030154145b801561277c575082600760003373ffffffffffffffffffffffffffffffffffffffff1673ffffffffffffffffffffffffffffffffffffffff168152602001908152602001600020828154811061276857612767615625565b5b906000526020600020906005020160040154145b156127f15784600760003373ffffffffffffffffffffffffffffffffffffffff1673ffffffffffffffffffffffffffffffffffffffff16815260200190815260200160002082815481106127d3576127d2615625565b5b90600052602060002090600502016002018190555060019150612804565b80806127fc90615b74565b9150506125a8565b508061292d57600760003373ffffffffffffffffffffffffffffffffffffffff1673ffffffffffffffffffffffffffffffffffffffff1681526020019081526020016000206040518060a001604052803373ffffffffffffffffffffffffffffffffffffffff16815260200187815260200186815260200185815260200184815250908060018154018082558091505060019003906000526020600020906005020160009091909190915060008201518160000160006101000a81548173ffffffffffffffffffffffffffffffffffffffff021916908373ffffffffffffffffffffffffffffffffffffffff160217905550602082015181600101908161290b91906153b4565b5060408201518160020155606082015181600301556080820151816004015550505b3373ffffffffffffffffffffffffffffffffffffffff167fc9e7d7d196f2a627d58bd73fde8204a075feee2972f896fd81af99b9d62c7937868686866040516129799493929190615bbc565b60405180910390a25050505050565b60008060009054906101000a900473ffffffffffffffffffffffffffffffffffffffff16905090565b600460205281600052604060002081815481106129cd57600080fd5b9060005260206000209060060201600091509150508060000160009054906101000a900473ffffffffffffffffffffffffffffffffffffffff16908060010154908060020154908060030154908060040154908060050160009054906101000a900460ff16908060050160019054906101000a900460ff16905087565b60086020528160005260406000208181548110612a6657600080fd5b9060005260206000209060070201600091509150508060000160009054906101000a900473ffffffffffffffffffffffffffffffffffffffff1690806001018054612ab0906151d7565b80601f0160208091040260200160405190810160405280929190818152602001828054612adc906151d7565b8015612b295780601f10612afe57610100808354040283529160200191612b29565b820191906000526020600020905b815481529060010190602001808311612b0c57829003601f168201915b505050505090806002018054612b3e906151d7565b80601f0160208091040260200160405190810160405280929190818152602001828054612b6a906151d7565b8015612bb75780601f10612b8c57610100808354040283529160200191612bb7565b820191906000526020600020905b815481529060010190602001808311612b9a57829003601f168201915b5050505050908060030154908060040154908060050154908060060160009054906101000a900460ff16905087565b6060600460003373ffffffffffffffffffffffffffffffffffffffff1673ffffffffffffffffffffffffffffffffffffffff168152602001908152602001600020805480602002602001604051908101604052809291908181526020016000905b82821015612d2d57838290600052602060002090600602016040518060e00160405290816000820160009054906101000a900473ffffffffffffffffffffffffffffffffffffffff1673ffffffffffffffffffffffffffffffffffffffff1673ffffffffffffffffffffffffffffffffffffffff168152602001600182015481526020016002820154815260200160038201548152602001600482015481526020016005820160009054906101000a900460ff161515151581526020016005820160019054906101000a900460ff16151515158152505081526020019060010190612c47565b50505050905090565b612d3e613e4b565b600460003373ffffffffffffffffffffffffffffffffffffffff1673ffffffffffffffffffffffffffffffffffffffff168152602001908152602001600020805490508110612dc2576040517f08c379a0000000000000000000000000000000000000000000000000000000008152600401612db990615605565b60405180910390fd5b6000600460003373ffffffffffffffffffffffffffffffffffffffff1673ffffffffffffffffffffffffffffffffffffffff1681526020019081526020016000208281548110612e1557612e14615625565b5b906000526020600020906006020190508060050160009054906101000a900460ff168015612e5257508060050160019054906101000a900460ff16155b612e91576040517f08c379a0000000000000000000000000000000000000000000000000000000008152600401612e88906156a0565b60405180910390fd5b6000606482600201548360010154612ea991906156c0565b612eb39190615731565b8260010154612ec29190615174565b905080341015612f07576040517f08c379a0000000000000000000000000000000000000000000000000000000008152600401612efe90615953565b60405180910390fd5b60018260050160016101000a81548160ff02191690831515021790555060008260050160006101000a81548160ff02191690831515021790555080341115612f9c573373ffffffffffffffffffffffffffffffffffffffff166108fc8234612f6f9190615973565b9081150290604051600060405180830381858888f19350505050158015612f9a573d6000803e3d6000fd5b505b600360003373ffffffffffffffffffffffffffffffffffffffff1673ffffffffffffffffffffffffffffffffffffffff1681526020019081526020016000206040518060a001604052803373ffffffffffffffffffffffffffffffffffffffff1681526020018381526020016040518060400160405280600e81526020017f4c6f616e2052657061796d656e7400000000000000000000000000000000000081525081526020014281526020016040518060400160405280600b81526020017f4c6f616e20726570616964000000000000000000000000000000000000000000815250815250908060018154018082558091505060019003906000526020600020906005020160009091909190915060008201518160000160006101000a81548173ffffffffffffffffffffffffffffffffffffffff021916908373ffffffffffffffffffffffffffffffffffffffff16021790555060208201518160010155604082015181600201908161311191906153b4565b5060608201518160030155608082015181600401908161313191906153b4565b5050503373ffffffffffffffffffffffffffffffffffffffff167fc200a1f31dd659e356e0f112c82558e25f49f7b0f84438691cd96f5cb35588238260405161317a9190614099565b60405180910390a2505061318c613e91565b50565b600860003373ffffffffffffffffffffffffffffffffffffffff1673ffffffffffffffffffffffffffffffffffffffff168152602001908152602001600020805490508110613213576040517f08c379a000000000000000000000000000000000000000000000000000000000815260040161320a90615605565b60405180910390fd5b60003411613256576040517f08c379a000000000000000000000000000000000000000000000000000000000815260040161324d906150b9565b60405180910390fd5b6000600860003373ffffffffffffffffffffffffffffffffffffffff1673ffffffffffffffffffffffffffffffffffffffff16815260200190815260200160002082815481106132a9576132a8615625565b5b906000526020600020906007020190508060060160009054906101000a900460ff161561330b576040517f08c379a000000000000000000000000000000000000000000000000000000000815260040161330290615c54565b60405180910390fd5b8060050154421115613352576040517f08c379a000000000000000000000000000000000000000000000000000000000815260040161334990615cc0565b60405180910390fd5b348160040160008282546133669190615174565b92505081905550600360003373ffffffffffffffffffffffffffffffffffffffff1673ffffffffffffffffffffffffffffffffffffffff1681526020019081526020016000206040518060a001604052803373ffffffffffffffffffffffffffffffffffffffff1681526020013481526020016040518060400160405280600781526020017f536176696e67730000000000000000000000000000000000000000000000000081525081526020014281526020018360010160405160200161342e9190615d2c565b604051602081830303815290604052815250908060018154018082558091505060019003906000526020600020906005020160009091909190915060008201518160000160006101000a81548173ffffffffffffffffffffffffffffffffffffffff021916908373ffffffffffffffffffffffffffffffffffffffff1602179055506020820151816001015560408201518160020190816134cf91906153b4565b506060820151816003015560808201518160040190816134ef91906153b4565b50505080600301548160040154106135705760018160060160006101000a81548160ff0219169083151502179055503373ffffffffffffffffffffffffffffffffffffffff167ff0cc728cf58a26af0deb15ce9a2b1591b12aabe8f3e483bef94638a5b980b0c0826001016040516135679190615d4e565b60405180910390a25b3373ffffffffffffffffffffffffffffffffffffffff167fd281b9f4db1f3ce2794f4169b23949b69f55ad9308ef231facbff6b5fc9eecd282600101346040516135bb929190615d70565b60405180910390a25050565b6000341161360a576040517f08c379a0000000000000000000000000000000000000000000000000000000008152600401613601906150b9565b60405180910390fd5b34600260003373ffffffffffffffffffffffffffffffffffffffff1673ffffffffffffffffffffffffffffffffffffffff16815260200190815260200160002060008282546136599190615174565b92505081905550600360003373ffffffffffffffffffffffffffffffffffffffff1673ffffffffffffffffffffffffffffffffffffffff1681526020019081526020016000206040518060a001604052803373ffffffffffffffffffffffffffffffffffffffff1681526020013481526020016040518060400160405280600781526020017f4465706f7369740000000000000000000000000000000000000000000000000081525081526020014281526020016040518060400160405280600b81526020017f455448206465706f736974000000000000000000000000000000000000000000815250815250908060018154018082558091505060019003906000526020600020906005020160009091909190915060008201518160000160006101000a81548173ffffffffffffffffffffffffffffffffffffffff021916908373ffffffffffffffffffffffffffffffffffffffff1602179055506020820151816001015560408201518160020190816137d591906153b4565b506060820151816003015560808201518160040190816137f591906153b4565b5050503373ffffffffffffffffffffffffffffffffffffffff167f90890809c654f11d6e72a28fa60149770a0d11ec6c92319d6ceb2bb0a4ea1a1534426040516138409291906159a7565b60405180910390a2565b6060600560003373ffffffffffffffffffffffffffffffffffffffff1673ffffffffffffffffffffffffffffffffffffffff168152602001908152602001600020805480602002602001604051908101604052809291908181526020016000905b828210156139f457838290600052602060002090600502016040518060a00160405290816000820160009054906101000a900473ffffffffffffffffffffffffffffffffffffffff1673ffffffffffffffffffffffffffffffffffffffff1673ffffffffffffffffffffffffffffffffffffffff1681526020016001820154815260200160028201805461393e906151d7565b80601f016020809104026020016040519081016040528092919081815260200182805461396a906151d7565b80156139b75780601f1061398c576101008083540402835291602001916139b7565b820191906000526020600020905b81548152906001019060200180831161399a57829003601f168201915b50505050508152602001600382015481526020016004820160009054906101000a900460ff161515151581525050815260200190600101906138ab565b50505050905090565b60008211613a40576040517f08c379a0000000000000000000000000000000000000000000000000000000008152600401613a37906150b9565b60405180910390fd5b428111613a82576040517f08c379a0000000000000000000000000000000000000000000000000000000008152600401613a7990615dec565b60405180910390fd5b600860003373ffffffffffffffffffffffffffffffffffffffff1673ffffffffffffffffffffffffffffffffffffffff1681526020019081526020016000206040518060e001604052803373ffffffffffffffffffffffffffffffffffffffff1681526020018681526020018581526020018481526020016000815260200183815260200160001515815250908060018154018082558091505060019003906000526020600020906007020160009091909190915060008201518160000160006101000a81548173ffffffffffffffffffffffffffffffffffffffff021916908373ffffffffffffffffffffffffffffffffffffffff1602179055506020820151816001019081613b9391906153b4565b506040820151816002019081613ba991906153b4565b50606082015181600301556080820151816004015560a0820151816005015560c08201518160060160006101000a81548160ff02191690831515021790555050503373ffffffffffffffffffffffffffffffffffffffff167fd8f90225f2fd69193bc6e992f974191bd17f084e563d076ef4b44403a62ec03a858484604051613c3493929190615e0c565b60405180910390a250505050565b613c4a613e9a565b600073ffffffffffffffffffffffffffffffffffffffff168173ffffffffffffffffffffffffffffffffffffffff1603613cbc5760006040517f1e4fbdf7000000000000000000000000000000000000000000000000000000008152600401613cb39190614c0e565b60405180910390fd5b613cc581613f21565b50565b60066020528160005260406000208181548110613ce457600080fd5b9060005260206000209060050201600091509150508060000160009054906101000a900473ffffffffffffffffffffffffffffffffffffffff1690806001015490806002018054613d34906151d7565b80601f0160208091040260200160405190810160405280929190818152602001828054613d60906151d7565b8015613dad5780601f10613d8257610100808354040283529160200191613dad565b820191906000526020600020905b815481529060010190602001808311613d9057829003601f168201915b505050505090806003015490806004018054613dc8906151d7565b80601f0160208091040260200160405190810160405280929190818152602001828054613df4906151d7565b8015613e415780601f10613e1657610100808354040283529160200191613e41565b820191906000526020600020905b815481529060010190602001808311613e2457829003601f168201915b5050505050905085565b600260015403613e87576040517f3ee5aeb500000000000000000000000000000000000000000000000000000000815260040160405180910390fd5b6002600181905550565b60018081905550565b613ea2613fe5565b73ffffffffffffffffffffffffffffffffffffffff16613ec0612988565b73ffffffffffffffffffffffffffffffffffffffff1614613f1f57613ee3613fe5565b6040517f118cdaa7000000000000000000000000000000000000000000000000000000008152600401613f169190614c0e565b60405180910390fd5b565b60008060009054906101000a900473ffffffffffffffffffffffffffffffffffffffff169050816000806101000a81548173ffffffffffffffffffffffffffffffffffffffff021916908373ffffffffffffffffffffffffffffffffffffffff1602179055508173ffffffffffffffffffffffffffffffffffffffff168173ffffffffffffffffffffffffffffffffffffffff167f8be0079c531659141344cd1fd0a4f28419497f9722a3daafe3b4186f6b6457e060405160405180910390a35050565b600033905090565b6000604051905090565b600080fd5b600080fd5b6000819050919050565b61401481614001565b811461401f57600080fd5b50565b6000813590506140318161400b565b92915050565b6000806000606084860312156140505761404f613ff7565b5b600061405e86828701614022565b935050602061406f86828701614022565b925050604061408086828701614022565b9150509250925092565b61409381614001565b82525050565b60006020820190506140ae600083018461408a565b92915050565b600073ffffffffffffffffffffffffffffffffffffffff82169050919050565b60006140df826140b4565b9050919050565b6140ef816140d4565b81146140fa57600080fd5b50565b60008135905061410c816140e6565b92915050565b6000806040838503121561412957614128613ff7565b5b6000614137858286016140fd565b925050602061414885828601614022565b9150509250929050565b61415b816140d4565b82525050565b600081519050919050565b600082825260208201905092915050565b60005b8381101561419b578082015181840152602081019050614180565b60008484015250505050565b6000601f19601f8301169050919050565b60006141c382614161565b6141cd818561416c565b93506141dd81856020860161417d565b6141e6816141a7565b840191505092915050565b600060a0820190506142066000830188614152565b614213602083018761408a565b818103604083015261422581866141b8565b9050614234606083018561408a565b818103608083015261424681846141b8565b90509695505050505050565b600080fd5b600080fd5b7f4e487b7100000000000000000000000000000000000000000000000000000000600052604160045260246000fd5b614294826141a7565b810181811067ffffffffffffffff821117156142b3576142b261425c565b5b80604052505050565b60006142c6613fed565b90506142d2828261428b565b919050565b600067ffffffffffffffff8211156142f2576142f161425c565b5b6142fb826141a7565b9050602081019050919050565b82818337600083830152505050565b600061432a614325846142d7565b6142bc565b90508281526020810184848401111561434657614345614257565b5b614351848285614308565b509392505050565b600082601f83011261436e5761436d614252565b5b813561437e848260208601614317565b91505092915050565b6000806040838503121561439e5761439d613ff7565b5b600083013567ffffffffffffffff8111156143bc576143bb613ffc565b5b6143c885828601614359565b925050602083013567ffffffffffffffff8111156143e9576143e8613ffc565b5b6143f585828601614359565b9150509250929050565b600081519050919050565b600082825260208201905092915050565b6000819050602082019050919050565b614434816140d4565b82525050565b600082825260208201905092915050565b600061445682614161565b614460818561443a565b935061447081856020860161417d565b614479816141a7565b840191505092915050565b61448d81614001565b82525050565b60008115159050919050565b6144a881614493565b82525050565b600060e0830160008301516144c6600086018261442b565b50602083015184820360208601526144de828261444b565b915050604083015184820360408601526144f8828261444b565b915050606083015161450d6060860182614484565b5060808301516145206080860182614484565b5060a083015161453360a0860182614484565b5060c083015161454660c086018261449f565b508091505092915050565b600061455d83836144ae565b905092915050565b6000602082019050919050565b600061457d826143ff565b614587818561440a565b9350836020820285016145998561441b565b8060005b858110156145d557848403895281516145b68582614551565b94506145c183614565565b925060208a0199505060018101905061459d565b50829750879550505050505092915050565b600060208201905081810360008301526146018184614572565b905092915050565b60006020828403121561461f5761461e613ff7565b5b600061462d84828501614022565b91505092915050565b60006020828403121561464c5761464b613ff7565b5b600061465a848285016140fd565b91505092915050565b600081519050919050565b600082825260208201905092915050565b6000819050602082019050919050565b600060a0830160008301516146a7600086018261442b565b50602083015184820360208601526146bf828261444b565b91505060408301516146d46040860182614484565b5060608301516146e76060860182614484565b5060808301516146fa6080860182614484565b508091505092915050565b6000614711838361468f565b905092915050565b6000602082019050919050565b600061473182614663565b61473b818561466e565b93508360208202850161474d8561467f565b8060005b85811015614789578484038952815161476a8582614705565b945061477583614719565b925060208a01995050600181019050614751565b50829750879550505050505092915050565b600060208201905081810360008301526147b58184614726565b905092915050565b6147c681614493565b82525050565b600060a0820190506147e16000830188614152565b6147ee602083018761408a565b818103604083015261480081866141b8565b905061480f606083018561408a565b61481c60808301846147bd565b9695505050505050565b60006020828403121561483c5761483b613ff7565b5b600082013567ffffffffffffffff81111561485a57614859613ffc565b5b61486684828501614359565b91505092915050565b600060a0820190506148846000830188614152565b818103602083015261489681876141b8565b90506148a5604083018661408a565b6148b2606083018561408a565b6148bf608083018461408a565b9695505050505050565b600081519050919050565b600082825260208201905092915050565b6000819050602082019050919050565b600060a08301600083015161490d600086018261442b565b5060208301516149206020860182614484565b5060408301518482036040860152614938828261444b565b915050606083015161494d6060860182614484565b5060808301518482036080860152614965828261444b565b9150508091505092915050565b600061497e83836148f5565b905092915050565b6000602082019050919050565b600061499e826148c9565b6149a881856148d4565b9350836020820285016149ba856148e5565b8060005b858110156149f657848403895281516149d78582614972565b94506149e283614986565b925060208a019950506001810190506149be565b50829750879550505050505092915050565b60006020820190508181036000830152614a228184614993565b905092915050565b600081519050919050565b600082825260208201905092915050565b6000819050602082019050919050565b600060a083016000830151614a6e600086018261442b565b506020830151614a816020860182614484565b5060408301518482036040860152614a99828261444b565b9150506060830151614aae6060860182614484565b5060808301518482036080860152614ac6828261444b565b9150508091505092915050565b6000614adf8383614a56565b905092915050565b6000602082019050919050565b6000614aff82614a2a565b614b098185614a35565b935083602082028501614b1b85614a46565b8060005b85811015614b575784840389528151614b388582614ad3565b9450614b4383614ae7565b925060208a01995050600181019050614b1f565b50829750879550505050505092915050565b60006020820190508181036000830152614b838184614af4565b905092915050565b60008060008060808587031215614ba557614ba4613ff7565b5b600085013567ffffffffffffffff811115614bc357614bc2613ffc565b5b614bcf87828801614359565b9450506020614be087828801614022565b9350506040614bf187828801614022565b9250506060614c0287828801614022565b91505092959194509250565b6000602082019050614c236000830184614152565b92915050565b600060e082019050614c3e600083018a614152565b614c4b602083018961408a565b614c58604083018861408a565b614c65606083018761408a565b614c72608083018661408a565b614c7f60a08301856147bd565b614c8c60c08301846147bd565b98975050505050505050565b600060e082019050614cad600083018a614152565b8181036020830152614cbf81896141b8565b90508181036040830152614cd381886141b8565b9050614ce2606083018761408a565b614cef608083018661408a565b614cfc60a083018561408a565b614d0960c08301846147bd565b98975050505050505050565b600081519050919050565b600082825260208201905092915050565b6000819050602082019050919050565b60e082016000820151614d57600085018261442b565b506020820151614d6a6020850182614484565b506040820151614d7d6040850182614484565b506060820151614d906060850182614484565b506080820151614da36080850182614484565b5060a0820151614db660a085018261449f565b5060c0820151614dc960c085018261449f565b50505050565b6000614ddb8383614d41565b60e08301905092915050565b6000602082019050919050565b6000614dff82614d15565b614e098185614d20565b9350614e1483614d31565b8060005b83811015614e45578151614e2c8882614dcf565b9750614e3783614de7565b925050600181019050614e18565b5085935050505092915050565b60006020820190508181036000830152614e6c8184614df4565b905092915050565b600081519050919050565b600082825260208201905092915050565b6000819050602082019050919050565b600060a083016000830151614eb8600086018261442b565b506020830151614ecb6020860182614484565b5060408301518482036040860152614ee3828261444b565b9150506060830151614ef86060860182614484565b506080830151614f0b608086018261449f565b508091505092915050565b6000614f228383614ea0565b905092915050565b6000602082019050919050565b6000614f4282614e74565b614f4c8185614e7f565b935083602082028501614f5e85614e90565b8060005b85811015614f9a5784840389528151614f7b8582614f16565b9450614f8683614f2a565b925060208a01995050600181019050614f62565b50829750879550505050505092915050565b60006020820190508181036000830152614fc68184614f37565b905092915050565b60008060008060808587031215614fe857614fe7613ff7565b5b600085013567ffffffffffffffff81111561500657615005613ffc565b5b61501287828801614359565b945050602085013567ffffffffffffffff81111561503357615032613ffc565b5b61503f87828801614359565b935050604061505087828801614022565b925050606061506187828801614022565b91505092959194509250565b7f3e30000000000000000000000000000000000000000000000000000000000000600082015250565b60006150a360028361416c565b91506150ae8261506d565b602082019050919050565b600060208201905081810360008301526150d281615096565b9050919050565b7f5261746520312d31303000000000000000000000000000000000000000000000600082015250565b600061510f600a8361416c565b915061511a826150d9565b602082019050919050565b6000602082019050818103600083015261513e81615102565b9050919050565b7f4e487b7100000000000000000000000000000000000000000000000000000000600052601160045260246000fd5b600061517f82614001565b915061518a83614001565b92508282019050808211156151a2576151a1615145565b5b92915050565b7f4e487b7100000000000000000000000000000000000000000000000000000000600052602260045260246000fd5b600060028204905060018216806151ef57607f821691505b602082108103615202576152016151a8565b5b50919050565b60008190508160005260206000209050919050565b60006020601f8301049050919050565b600082821b905092915050565b60006008830261526a7fffffffffffffffffffffffffffffffffffffffffffffffffffffffffffffffff8261522d565b615274868361522d565b95508019841693508086168417925050509392505050565b6000819050919050565b60006152b16152ac6152a784614001565b61528c565b614001565b9050919050565b6000819050919050565b6152cb83615296565b6152df6152d7826152b8565b84845461523a565b825550505050565b600090565b6152f46152e7565b6152ff8184846152c2565b505050565b5b81811015615323576153186000826152ec565b600181019050615305565b5050565b601f8211156153685761533981615208565b6153428461521d565b81016020851015615351578190505b61536561535d8561521d565b830182615304565b50505b505050565b600082821c905092915050565b600061538b6000198460080261536d565b1980831691505092915050565b60006153a4838361537a565b9150826002028217905092915050565b6153bd82614161565b67ffffffffffffffff8111156153d6576153d561425c565b5b6153e082546151d7565b6153eb828285615327565b600060209050601f83116001811461541e576000841561540c578287015190505b6154168582615398565b86555061547e565b601f19841661542c86615208565b60005b828110156154545784890151825560018201915060208501945060208101905061542f565b86831015615471578489015161546d601f89168261537a565b8355505b6001600288020188555050505b505050505050565b600060608201905061549b600083018661408a565b6154a8602083018561408a565b6154b5604083018461408a565b949350505050565b600081905092915050565b60006154d382614161565b6154dd81856154bd565b93506154ed81856020860161417d565b80840191505092915050565b7f3a20000000000000000000000000000000000000000000000000000000000000600082015250565b600061552f6002836154bd565b915061553a826154f9565b600282019050919050565b600061555182856154c8565b915061555c82615522565b915061556882846154c8565b91508190509392505050565b6000606082019050615589600083018661408a565b818103602083015261559b81856141b8565b905081810360408301526155af81846141b8565b9050949350505050565b7f496e76616c696400000000000000000000000000000000000000000000000000600082015250565b60006155ef60078361416c565b91506155fa826155b9565b602082019050919050565b6000602082019050818103600083015261561e816155e2565b9050919050565b7f4e487b7100000000000000000000000000000000000000000000000000000000600052603260045260246000fd5b7f4e6f742061637469766500000000000000000000000000000000000000000000600082015250565b600061568a600a8361416c565b915061569582615654565b602082019050919050565b600060208201905081810360008301526156b98161567d565b9050919050565b60006156cb82614001565b91506156d683614001565b92508282026156e481614001565b915082820484148315176156fb576156fa615145565b5b5092915050565b7f4e487b7100000000000000000000000000000000000000000000000000000000600052601260045260246000fd5b600061573c82614001565b915061574783614001565b92508261575757615756615702565b5b828204905092915050565b7f52657475726e2066726f6d200000000000000000000000000000000000000000600082015250565b6000615798600c836154bd565b91506157a382615762565b600c82019050919050565b600081546157bb816151d7565b6157c581866154bd565b945060018216600081146157e057600181146157f557615828565b60ff1983168652811515820286019350615828565b6157fe85615208565b60005b8381101561582057815481890152600182019150602081019050615801565b838801955050505b50505092915050565b600061583c8261578b565b915061584882846157ae565b915081905092915050565b60008154615860816151d7565b61586a818661416c565b94506001821660008114615885576001811461589b576158ce565b60ff1983168652811515602002860193506158ce565b6158a485615208565b60005b838110156158c6578154818901526001820191506020810190506158a7565b808801955050505b50505092915050565b60006040820190506158ec600083018561408a565b81810360208301526158fe8184615853565b90509392505050565b7f496e73756666696369656e740000000000000000000000000000000000000000600082015250565b600061593d600c8361416c565b915061594882615907565b602082019050919050565b6000602082019050818103600083015261596c81615930565b9050919050565b600061597e82614001565b915061598983614001565b92508282039050818111156159a1576159a0615145565b5b92915050565b60006040820190506159bc600083018561408a565b6159c9602083018461408a565b9392505050565b7f496e766573746d656e7420696e20000000000000000000000000000000000000600082015250565b6000615a06600e836154bd565b9150615a11826159d0565b600e82019050919050565b6000615a27826159f9565b9150615a3382846154c8565b915081905092915050565b6000604082019050615a53600083018561408a565b8181036020830152615a6581846141b8565b90509392505050565b7f496e76616c6964206d6f6e746800000000000000000000000000000000000000600082015250565b6000615aa4600d8361416c565b9150615aaf82615a6e565b602082019050919050565b60006020820190508181036000830152615ad381615a97565b9050919050565b7f59656172203e3d20323032330000000000000000000000000000000000000000600082015250565b6000615b10600c8361416c565b9150615b1b82615ada565b602082019050919050565b60006020820190508181036000830152615b3f81615b03565b9050919050565b6000615b5282846154c8565b915081905092915050565b6000615b6982846157ae565b915081905092915050565b6000615b7f82614001565b91507fffffffffffffffffffffffffffffffffffffffffffffffffffffffffffffffff8203615bb157615bb0615145565b5b600182019050919050565b60006080820190508181036000830152615bd681876141b8565b9050615be5602083018661408a565b615bf2604083018561408a565b615bff606083018461408a565b95945050505050565b7f436f6d706c657465640000000000000000000000000000000000000000000000600082015250565b6000615c3e60098361416c565b9150615c4982615c08565b602082019050919050565b60006020820190508181036000830152615c6d81615c31565b9050919050565b7f4578706972656400000000000000000000000000000000000000000000000000600082015250565b6000615caa60078361416c565b9150615cb582615c74565b602082019050919050565b60006020820190508181036000830152615cd981615c9d565b9050919050565b7f436f6e747269627574696f6e20746f20736176696e677320676f616c3a200000600082015250565b6000615d16601e836154bd565b9150615d2182615ce0565b601e82019050919050565b6000615d3782615d09565b9150615d4382846157ae565b915081905092915050565b60006020820190508181036000830152615d688184615853565b905092915050565b60006040820190508181036000830152615d8a8185615853565b9050615d99602083018461408a565b9392505050565b7f4675747572650000000000000000000000000000000000000000000000000000600082015250565b6000615dd660068361416c565b9150615de182615da0565b602082019050919050565b60006020820190508181036000830152615e0581615dc9565b9050919050565b60006060820190508181036000830152615e2681866141b8565b9050615e35602083018561408a565b615e42604083018461408a565b94935050505056fea26469706673582212203c3425e7d4c379b78501412d6b87f719ce177ef6e5663f3fedd66aedc4e2bde364736f6c63430008140033",
  "linkReferences": {},
  "deployedLinkReferences": {}
}